{
    "_format": "hh-sol-artifact-1",
    "contractName": "CampaignFactory",
    "sourceName": "contracts/CampaignFactory.sol",
    "abi": [
        {
            "inputs": [
                {
                    "internalType": "uint256",
                    "name": "_campaignGoal",
                    "type": "uint256"
                },
                {
                    "internalType": "address",
                    "name": "_creator",
                    "type": "address"
                },
                {
                    "internalType": "string",
                    "name": "_title",
                    "type": "string"
                },
                {
                    "internalType": "string",
                    "name": "_description",
                    "type": "string"
                },
                {
                    "internalType": "uint256",
                    "name": "_period",
                    "type": "uint256"
                }
            ],
            "name": "createCampaign",
            "outputs": [],
            "stateMutability": "nonpayable",
            "type": "function"
        },
        {
            "inputs": [
                {
                    "internalType": "uint256",
                    "name": "",
                    "type": "uint256"
                }
            ],
            "name": "deployedCampaigns",
            "outputs": [
                {
                    "internalType": "address",
                    "name": "",
                    "type": "address"
                }
            ],
            "stateMutability": "view",
            "type": "function"
        },
        {
            "inputs": [],
            "name": "getDeployedCampaigns",
            "outputs": [
                {
                    "internalType": "address[]",
                    "name": "",
                    "type": "address[]"
                }
            ],
            "stateMutability": "view",
            "type": "function"
        }
    ],
    "bytecode": "0x608060405234801561001057600080fd5b506121bc806100206000396000f3fe60806040523480156200001157600080fd5b5060043610620000465760003560e01c8063339d50a5146200004b57806344b0c85614620000815780634acb9d4f14620000a1575b600080fd5b620000696004803603810190620000639190620002a0565b620000c3565b60405162000078919062000317565b60405180910390f35b6200009f6004803603810190620000999190620004c7565b62000103565b005b620000ab620001b3565b604051620000ba91906200065b565b60405180910390f35b60008181548110620000d457600080fd5b906000526020600020016000915054906101000a900473ffffffffffffffffffffffffffffffffffffffff1681565b60008585858585604051620001189062000243565b6200012895949392919062000723565b604051809103906000f08015801562000145573d6000803e3d6000fd5b5090506000819080600181540180825580915050600190039060005260206000200160009091909190916101000a81548173ffffffffffffffffffffffffffffffffffffffff021916908373ffffffffffffffffffffffffffffffffffffffff160217905550505050505050565b606060008054806020026020016040519081016040528092919081815260200182805480156200023957602002820191906000526020600020905b8160009054906101000a900473ffffffffffffffffffffffffffffffffffffffff1673ffffffffffffffffffffffffffffffffffffffff1681526020019060010190808311620001ee575b5050505050905090565b6119f8806200078f83390190565b6000604051905090565b600080fd5b600080fd5b6000819050919050565b6200027a8162000265565b81146200028657600080fd5b50565b6000813590506200029a816200026f565b92915050565b600060208284031215620002b957620002b86200025b565b5b6000620002c98482850162000289565b91505092915050565b600073ffffffffffffffffffffffffffffffffffffffff82169050919050565b6000620002ff82620002d2565b9050919050565b6200031181620002f2565b82525050565b60006020820190506200032e600083018462000306565b92915050565b6200033f81620002f2565b81146200034b57600080fd5b50565b6000813590506200035f8162000334565b92915050565b600080fd5b600080fd5b6000601f19601f8301169050919050565b7f4e487b7100000000000000000000000000000000000000000000000000000000600052604160045260246000fd5b620003ba826200036f565b810181811067ffffffffffffffff82111715620003dc57620003db62000380565b5b80604052505050565b6000620003f162000251565b9050620003ff8282620003af565b919050565b600067ffffffffffffffff82111562000422576200042162000380565b5b6200042d826200036f565b9050602081019050919050565b82818337600083830152505050565b6000620004606200045a8462000404565b620003e5565b9050828152602081018484840111156200047f576200047e6200036a565b5b6200048c8482856200043a565b509392505050565b600082601f830112620004ac57620004ab62000365565b5b8135620004be84826020860162000449565b91505092915050565b600080600080600060a08688031215620004e657620004e56200025b565b5b6000620004f68882890162000289565b955050602062000509888289016200034e565b945050604086013567ffffffffffffffff8111156200052d576200052c62000260565b5b6200053b8882890162000494565b935050606086013567ffffffffffffffff8111156200055f576200055e62000260565b5b6200056d8882890162000494565b9250506080620005808882890162000289565b9150509295509295909350565b600081519050919050565b600082825260208201905092915050565b6000819050602082019050919050565b620005c481620002f2565b82525050565b6000620005d88383620005b9565b60208301905092915050565b6000602082019050919050565b6000620005fe826200058d565b6200060a818562000598565b93506200061783620005a9565b8060005b838110156200064e578151620006328882620005ca565b97506200063f83620005e4565b9250506001810190506200061b565b5085935050505092915050565b60006020820190508181036000830152620006778184620005f1565b905092915050565b6200068a8162000265565b82525050565b600081519050919050565b600082825260208201905092915050565b60005b83811015620006cc578082015181840152602081019050620006af565b83811115620006dc576000848401525b50505050565b6000620006ef8262000690565b620006fb81856200069b565b93506200070d818560208601620006ac565b62000718816200036f565b840191505092915050565b600060a0820190506200073a60008301886200067f565b62000749602083018762000306565b81810360408301526200075d8186620006e2565b90508181036060830152620007738185620006e2565b90506200078460808301846200067f565b969550505050505056fe60806040523480156200001157600080fd5b50604051620019f8380380620019f88339818101604052810190620000379190620003c0565b83600160006101000a81548173ffffffffffffffffffffffffffffffffffffffff021916908373ffffffffffffffffffffffffffffffffffffffff160217905550826002908051906020019062000090929190620000d3565b508160039080519060200190620000a9929190620000d3565b508460048190555060006005819055506000600681905550806007819055505050505050620004eb565b828054620000e190620004b5565b90600052602060002090601f01602090048101928262000105576000855562000151565b82601f106200012057805160ff191683800117855562000151565b8280016001018555821562000151579182015b828111156200015057825182559160200191906001019062000133565b5b50905062000160919062000164565b5090565b5b808211156200017f57600081600090555060010162000165565b5090565b6000604051905090565b600080fd5b600080fd5b6000819050919050565b620001ac8162000197565b8114620001b857600080fd5b50565b600081519050620001cc81620001a1565b92915050565b600073ffffffffffffffffffffffffffffffffffffffff82169050919050565b6000620001ff82620001d2565b9050919050565b6200021181620001f2565b81146200021d57600080fd5b50565b600081519050620002318162000206565b92915050565b600080fd5b600080fd5b6000601f19601f8301169050919050565b7f4e487b7100000000000000000000000000000000000000000000000000000000600052604160045260246000fd5b6200028c8262000241565b810181811067ffffffffffffffff82111715620002ae57620002ad62000252565b5b80604052505050565b6000620002c362000183565b9050620002d1828262000281565b919050565b600067ffffffffffffffff821115620002f457620002f362000252565b5b620002ff8262000241565b9050602081019050919050565b60005b838110156200032c5780820151818401526020810190506200030f565b838111156200033c576000848401525b50505050565b6000620003596200035384620002d6565b620002b7565b9050828152602081018484840111156200037857620003776200023c565b5b620003858482856200030c565b509392505050565b600082601f830112620003a557620003a462000237565b5b8151620003b784826020860162000342565b91505092915050565b600080600080600060a08688031215620003df57620003de6200018d565b5b6000620003ef88828901620001bb565b9550506020620004028882890162000220565b945050604086015167ffffffffffffffff81111562000426576200042562000192565b5b62000434888289016200038d565b935050606086015167ffffffffffffffff81111562000458576200045762000192565b5b62000466888289016200038d565b92505060806200047988828901620001bb565b9150509295509295909350565b7f4e487b7100000000000000000000000000000000000000000000000000000000600052602260045260246000fd5b60006002820490506001821680620004ce57607f821691505b60208210811415620004e557620004e462000486565b5b50919050565b6114fd80620004fb6000396000f3fe6080604052600436106100c25760003560e01c806349ef026f1161007f578063835a617211610059578063835a61721461021a578063a00c96d714610245578063d7bb99ba14610279578063ef068a7f14610283576100c2565b806349ef026f146101ba578063590e1ae3146101e55780637569b3d7146101ef576100c2565b806310550515146100c7578063110842cb146100f25780631f6d49421461011d57806329dcb0cf1461015a5780633ccfd60b14610185578063481c6a751461018f575b600080fd5b3480156100d357600080fd5b506100dc6102ae565b6040516100e99190610d01565b60405180910390f35b3480156100fe57600080fd5b506101076103e2565b6040516101149190610d01565b60405180910390f35b34801561012957600080fd5b50610144600480360381019061013f9190610d86565b610470565b6040516101519190610dcc565b60405180910390f35b34801561016657600080fd5b5061016f610488565b60405161017c9190610dcc565b60405180910390f35b61018d61048e565b005b34801561019b57600080fd5b506101a4610636565b6040516101b19190610df6565b60405180910390f35b3480156101c657600080fd5b506101cf61065c565b6040516101dc9190610dcc565b60405180910390f35b6101ed610662565b005b3480156101fb57600080fd5b50610204610882565b6040516102119190610dcc565b60405180910390f35b34801561022657600080fd5b5061022f610888565b60405161023c9190610d01565b60405180910390f35b34801561025157600080fd5b5061025a610916565b6040516102709a99989796959493929190610e11565b60405180910390f35b610281610a9b565b005b34801561028f57600080fd5b50610298610c62565b6040516102a59190610dcc565b60405180910390f35b60606007544210156102f7576040518060400160405280600681526020017f4f70656e6564000000000000000000000000000000000000000000000000000081525090506103df565b600754421015801561030d575060045460065410155b1561034f576040518060400160405280600981526020017f537563636565646564000000000000000000000000000000000000000000000081525090506103df565b60075442101580156103645750600454600654105b156103a6576040518060400160405280600681526020017f4661696c6564000000000000000000000000000000000000000000000000000081525090506103df565b6040518060400160405280600981526020017f556e646566696e6564000000000000000000000000000000000000000000000081525090505b90565b600380546103ef90610ef1565b80601f016020809104026020016040519081016040528092919081815260200182805461041b90610ef1565b80156104685780601f1061043d57610100808354040283529160200191610468565b820191906000526020600020905b81548152906001019060200180831161044b57829003601f168201915b505050505081565b60006020528060005260406000206000915090505481565b60075481565b600160009054906101000a900473ffffffffffffffffffffffffffffffffffffffff1673ffffffffffffffffffffffffffffffffffffffff163373ffffffffffffffffffffffffffffffffffffffff161461051e576040517f08c379a000000000000000000000000000000000000000000000000000000000815260040161051590610f95565b60405180910390fd5b600754421015610563576040517f08c379a000000000000000000000000000000000000000000000000000000000815260040161055a90611027565b60405180910390fd5b60045460065410156105aa576040517f08c379a00000000000000000000000000000000000000000000000000000000081526004016105a1906110b9565b60405180910390fd5b600047116105ed576040517f08c379a00000000000000000000000000000000000000000000000000000000081526004016105e490611125565b60405180910390fd5b3373ffffffffffffffffffffffffffffffffffffffff166108fc479081150290604051600060405180830381858888f19350505050158015610633573d6000803e3d6000fd5b50565b600160009054906101000a900473ffffffffffffffffffffffffffffffffffffffff1681565b60065481565b6007544210156106a7576040517f08c379a000000000000000000000000000000000000000000000000000000000815260040161069e90611027565b60405180910390fd5b600454600654106106ed576040517f08c379a00000000000000000000000000000000000000000000000000000000081526004016106e4906111b7565b60405180910390fd5b60008060003373ffffffffffffffffffffffffffffffffffffffff1673ffffffffffffffffffffffffffffffffffffffff168152602001908152602001600020541161076e576040517f08c379a000000000000000000000000000000000000000000000000000000000815260040161076590611249565b60405180910390fd5b600047116107b1576040517f08c379a00000000000000000000000000000000000000000000000000000000081526004016107a890611125565b60405180910390fd5b60008060003373ffffffffffffffffffffffffffffffffffffffff1673ffffffffffffffffffffffffffffffffffffffff16815260200190815260200160002054905060008060003373ffffffffffffffffffffffffffffffffffffffff1673ffffffffffffffffffffffffffffffffffffffff168152602001908152602001600020819055503373ffffffffffffffffffffffffffffffffffffffff166108fc829081150290604051600060405180830381858888f1935050505015801561087e573d6000803e3d6000fd5b5050565b60055481565b6002805461089590610ef1565b80601f01602080910402602001604051908101604052809291908181526020018280546108c190610ef1565b801561090e5780601f106108e35761010080835404028352916020019161090e565b820191906000526020600020905b8154815290600101906020018083116108f157829003601f168201915b505050505081565b6000806060806000806000806000606047600160009054906101000a900473ffffffffffffffffffffffffffffffffffffffff1660026003600454600554600654600754426109636102ae565b87805461096f90610ef1565b80601f016020809104026020016040519081016040528092919081815260200182805461099b90610ef1565b80156109e85780601f106109bd576101008083540402835291602001916109e8565b820191906000526020600020905b8154815290600101906020018083116109cb57829003601f168201915b505050505097508680546109fb90610ef1565b80601f0160208091040260200160405190810160405280929190818152602001828054610a2790610ef1565b8015610a745780601f10610a4957610100808354040283529160200191610a74565b820191906000526020600020905b815481529060010190602001808311610a5757829003601f168201915b50505050509650995099509950995099509950995099509950995090919293949596979899565b6007544210610adf576040517f08c379a0000000000000000000000000000000000000000000000000000000008152600401610ad6906112db565b60405180910390fd5b600160009054906101000a900473ffffffffffffffffffffffffffffffffffffffff1673ffffffffffffffffffffffffffffffffffffffff163373ffffffffffffffffffffffffffffffffffffffff161415610b70576040517f08c379a0000000000000000000000000000000000000000000000000000000008152600401610b679061136d565b60405180910390fd5b60008060003373ffffffffffffffffffffffffffffffffffffffff1673ffffffffffffffffffffffffffffffffffffffff1681526020019081526020016000205414610bf1576040517f08c379a0000000000000000000000000000000000000000000000000000000008152600401610be8906113d9565b60405180910390fd5b60056000815480929190610c0490611428565b9190505550346000803373ffffffffffffffffffffffffffffffffffffffff1673ffffffffffffffffffffffffffffffffffffffff1681526020019081526020016000208190555034600654610c5a9190611471565b600681905550565b60045481565b600081519050919050565b600082825260208201905092915050565b60005b83811015610ca2578082015181840152602081019050610c87565b83811115610cb1576000848401525b50505050565b6000601f19601f8301169050919050565b6000610cd382610c68565b610cdd8185610c73565b9350610ced818560208601610c84565b610cf681610cb7565b840191505092915050565b60006020820190508181036000830152610d1b8184610cc8565b905092915050565b600080fd5b600073ffffffffffffffffffffffffffffffffffffffff82169050919050565b6000610d5382610d28565b9050919050565b610d6381610d48565b8114610d6e57600080fd5b50565b600081359050610d8081610d5a565b92915050565b600060208284031215610d9c57610d9b610d23565b5b6000610daa84828501610d71565b91505092915050565b6000819050919050565b610dc681610db3565b82525050565b6000602082019050610de16000830184610dbd565b92915050565b610df081610d48565b82525050565b6000602082019050610e0b6000830184610de7565b92915050565b600061014082019050610e27600083018d610dbd565b610e34602083018c610de7565b8181036040830152610e46818b610cc8565b90508181036060830152610e5a818a610cc8565b9050610e696080830189610dbd565b610e7660a0830188610dbd565b610e8360c0830187610dbd565b610e9060e0830186610dbd565b610e9e610100830185610dbd565b818103610120830152610eb18184610cc8565b90509b9a5050505050505050505050565b7f4e487b7100000000000000000000000000000000000000000000000000000000600052602260045260246000fd5b60006002820490506001821680610f0957607f821691505b60208210811415610f1d57610f1c610ec2565b5b50919050565b7f4f6e6c79206d616e616765722063616e2063616c6c20746869732066756e637460008201527f696f6e0000000000000000000000000000000000000000000000000000000000602082015250565b6000610f7f602383610c73565b9150610f8a82610f23565b604082019050919050565b60006020820190508181036000830152610fae81610f72565b9050919050565b7f43616d706169676e20686173206e6f742072656163686564207468652064656160008201527f646c696e65210000000000000000000000000000000000000000000000000000602082015250565b6000611011602683610c73565b915061101c82610fb5565b604082019050919050565b6000602082019050818103600083015261104081611004565b9050919050565b7f43616d706169676e20686173206e6f7420726561636865642074686520676f6160008201527f6c21000000000000000000000000000000000000000000000000000000000000602082015250565b60006110a3602283610c73565b91506110ae82611047565b604082019050919050565b600060208201905081810360008301526110d281611096565b9050919050565b7f43616d706169676e2062616c616e636520697320657175616c20746f20302100600082015250565b600061110f601f83610c73565b915061111a826110d9565b602082019050919050565b6000602082019050818103600083015261113e81611102565b9050919050565b7f43616d706169676e20726561636865642074686520676f616c2e20526566756e60008201527f64206973206e6f7420706f737369626c65210000000000000000000000000000602082015250565b60006111a1603283610c73565b91506111ac82611145565b604082019050919050565b600060208201905081810360008301526111d081611194565b9050919050565b7f596f752068617665206e6f7420636f6e747269627574656420696e746f20746860008201527f652063616d706169676e21000000000000000000000000000000000000000000602082015250565b6000611233602b83610c73565b915061123e826111d7565b604082019050919050565b6000602082019050818103600083015261126281611226565b9050919050565b7f446561646c696e652068617320657870697265642e2043616d706169676e206360008201527f6c6f73656420666f7220636f6e747269627574696f6e21000000000000000000602082015250565b60006112c5603783610c73565b91506112d082611269565b604082019050919050565b600060208201905081810360008301526112f4816112b8565b9050919050565b7f596f752063616e277420636f6e7472696275746520696e20796f7572206f776e60008201527f2063616d706169676e2100000000000000000000000000000000000000000000602082015250565b6000611357602a83610c73565b9150611362826112fb565b604082019050919050565b600060208201905081810360008301526113868161134a565b9050919050565b7f596f752063616e20636f6e74726962757465206f6e6c79206f6e636521000000600082015250565b60006113c3601d83610c73565b91506113ce8261138d565b602082019050919050565b600060208201905081810360008301526113f2816113b6565b9050919050565b7f4e487b7100000000000000000000000000000000000000000000000000000000600052601160045260246000fd5b600061143382610db3565b91507fffffffffffffffffffffffffffffffffffffffffffffffffffffffffffffffff821415611466576114656113f9565b5b600182019050919050565b600061147c82610db3565b915061148783610db3565b9250827fffffffffffffffffffffffffffffffffffffffffffffffffffffffffffffffff038211156114bc576114bb6113f9565b5b82820190509291505056fea2646970667358221220d2d044ce3f859eeff5d42db52e20d20927bb2c3cadbf5d619a91e479eafb89d864736f6c63430008090033a2646970667358221220029ddb2c2004019948042c2a380135019ae1db2f6c3cf4474a814634f9a060dd64736f6c63430008090033",
    "linkReferences": {},
    "deployedLinkReferences": {}
}